:100000000C942A000C943F000C943F000C943F0089
:100010000C943F000C943F000C943F000C943F0064
:100020000C943F000C943F000C943F000C943F0054
:100030000C943F000C943F000C943F000C943F0044
:100040000C943F000C943F000C943F000C943F0034
:100050000C943F0011241FBECFE5D4E0DEBFCDBF1E
:1000600010E0A0E6B0E0E2E9FDE002C005900D92EC
:10007000A23CB107D9F70E944E000C94C7060C941D
:1000800000000E94F6010E94BF020E94AC010E9483
:10009000B5010E949D010E9408030895CF93DF934C
:1000A000CDB7DEB76B970FB6F894DEBF0FBECDBFEE
:1000B0000E94410088E0E0E6F0E0DE011196019048
:1000C0000D928A95E1F788E0E8E6F0E0DE01199606
:1000D00001900D928A95E1F788E0E0E7F0E0DE011B
:1000E000519601900D928A95E1F7198E1A8E1B8E0A
:1000F00061E081E00E94610260E088E790E00E9498
:10010000460261E082E00E94610260E084E890E0E3
:100110000E94460200E08FE39CE90197F1F700C0DE
:1001200000000E94B1018B8F8FE00E94BE01898F79
:1001300080E10E94BE018A8F8FE39CE90197F1F76D
:1001400000C000006BE081E00E94610260E089E095
:100150000E9457026DE082E00E94610260E0802F01
:100160000E9457029FEF21EE84E091502040804092
:10017000E1F700C00000898D811142C0002399F091
:10018000015020E0AE014F5E5F4F60E182E00E94CF
:100190007C029FEF2BE782E9915020408040E1F7FD
:1001A00000C000002DC00E945D0260E082E990E086
:1001B0000E94460261E082E00E94610260E081EA02
:1001C00090E00E9446029FEF2DE389E49150204089
:1001D0008040E1F700C000000E945D0261E081E024
:1001E0000E94610260E088E790E00E94460261E0C0
:1001F00082E00E94610260E084E890E00E94460292
:100200008B8D811147C00E945D0260E08CEA90E016
:100210000E94460220E0AE014F5F5F4F60E182E046
:100220000E947C029FEF2DE389E4915020408040A2
:10023000E1F700C0000010E00EC00E94A2019FEF95
:1002400020E782E0915020408040E1F700C00000AC
:100250000E94A7011F5F1A3080F39FEF21EE84E018
:10026000915020408040E1F700C000000E945D02F4
:1002700061E081E00E94610260E088E790E00E9416
:10028000460261E082E00E94610260E084E890E062
:100290000E9446028A8D81113ECF61E08AE00E9471
:1002A000C8029FEF23E284EF915020408040E1F7A5
:1002B00000C0000060E08AE00E94C8029FEF23E2D5
:1002C00084EF915020408040E1F700C000000930E9
:1002D00051F00F5F21E0AE01475F5F4F60E182E0C8
:1002E0000E947C0218CF0E945D0210E00CC08FE0DB
:1002F0000E94BE01898F113031F060E083EB90E005
:100300000E94460211E0093019F4898D8111EFCF66
:100310000E945D0261E081E00E94610260E088E786
:1003200090E00E94460261E082E00E94610260E08B
:1003300084E890E00E944602EECE61E081E20E94F5
:100340008703089561E081E20E940704089560E058
:1003500081E20E940704089560E08EE00E94870316
:1003600008958EE00E948704089560E08FE00E9467
:10037000870360E080E10E94870308950E9487045C
:10038000089561E08DE00E94070483EC99E00197F5
:10039000F1F700C0000060E08DE00E94070483ECEC
:1003A00099E00197F1F700C00000089561E08DE049
:1003B0000E94070483EC99E00197F1F700C0000068
:1003C00060E08DE00E94070483EC99E00197F1F76B
:1003D00000C000000895CF93C82F60E08CE00E9419
:1003E0000704CBBB0E94C101CF91089587E893E138
:1003F0000197F1F700C000008FEF8ABB61E08CE04D
:100400000E94870361E08DE00E94870388E30E94D9
:10041000EB018CE00E94EB0189EF90E00197F1F78E
:1004200000C0000086E00E94EB0189EF90E0019798
:10043000F1F700C0000081E00E94EB0187E893E142
:100440000197F1F700C000000895CF93C82F6623ED
:1004500019F0613049F018C061E08CE00E94070497
:10046000CBBB0E94C10110C061E08CE00E94070478
:100470008C2F807F8BBB0E94D60120E1C29FC001E0
:1004800011248BBB0E94D601CF9108951F93CF9367
:10049000DF93EC01162F04C02196612F0E942502E4
:1004A00088818111F9CFDF91CF911F9108958063E9
:1004B0008BBB8BB30E942502089581E00E94EB0163
:1004C0000895613170F4813019F0823031F008956F
:1004D0008FE7860F0E94EB0108958FEB860F0E9435
:1004E000EB010895CF93C42F0E94610260E08C2F2E
:1004F0000E942502CF910895EF92FF920F931F93D0
:10050000CF93DF93F82EE62E8A01D22F822F90E030
:100510000896880F880F880F0E94EB01C0E008C082
:10052000F801EC0FF11D60E080810E942502CF5F91
:10053000C830B0F34D2F6E2D8F2D0E947202DF91C7
:10054000CF911F910F91FF90EF900895682F70E069
:1005500080E090E00E94A50520E030E044E353E411
:100560000E94310520E030E040E85FE30E94C504CE
:1005700020E030E04AE754E40E943606089561E046
:100580008AE00E94870361E08BE00E948703089560
:10059000CF92DF92EF92FF92CF93C82F6623D1F0D4
:1005A000613081F50E9407048AEF0E94A6026B0168
:1005B0007C010E94150360E08C2F0E940704A701B4
:1005C000960160E070EC82E796EC0E94C4040E9401
:1005D000150318C061E00E94070480E00E94A60293
:1005E0006B017C010E94150360E08C2F0E940704C0
:1005F000A701960160E070EC82E796EC0E94C404CB
:100600000E941503CF91FF90EF90DF90CF90089557
:1006100060E084E10E94870361E085E10E94870336
:1006200060E085E10E9407040895CF92DF92EF9287
:10063000FF926B017C0110C08FEC97E00197F1F7FE
:1006400000C0000020E030E04AE754E4C701B601F2
:100650000E94C4046B017C0120E030E04AE754E4CE
:10066000C701B6010E943106882334F710C087EC19
:1006700090E00197F1F700C0000020E030E048EC86
:1006800052E4C701B6010E94C4046B017C0120E062
:1006900030E048EC52E4C701B6010E9431068823DD
:1006A00034F70EC09AE19A95F1F700C020E030E0EF
:1006B00040E251E4C701B6010E94C4046B017C0111
:1006C00020E030E040E251E4C701B6010E9431066B
:1006D000882344F70EC082E08A95F1F700C020E03D
:1006E00030E040E85FE3C701B6010E94C4046B013B
:1006F0007C0120E030E0A901C701B6010E9431066B
:1007000018164CF3FF90EF90DF90CF9008959DEC7A
:10071000899F912D1124969596959695392F330F93
:10072000232F220F220F230F821B282F6623B9F1BC
:10073000613009F06BC0913089F028F09230C9F037
:10074000933011F108953AB381E090E002C0880F30
:10075000991F2A95E2F7832B8ABB089537B381E06E
:1007600090E002C0880F991F2A95E2F7832B87BB80
:10077000089534B381E090E002C0880F991F2A9554
:10078000E2F7832B84BB089531B381E090E002C08F
:10079000880F991F2A95E2F7832B81BB089591302A
:1007A00091F028F09230D9F0933029F108953AB3BE
:1007B00081E090E002C0880F991F2A95E2F78095AA
:1007C00083238ABB089537B381E090E002C0880F8D
:1007D000991F2A95E2F78095832387BB089534B348
:1007E00081E090E002C0880F991F2A95E2F780957A
:1007F000832384BB089531B381E090E002C0880F69
:10080000991F2A95E2F78095832381BB08959DEC7B
:10081000899F912D1124969596959695392F330F92
:10082000232F220F220F230F821B282F6623B9F1BB
:10083000613009F06BC0913089F028F09230C9F036
:10084000933011F108953BB381E090E002C0880F2E
:10085000991F2A95E2F7832B8BBB089538B381E06B
:1008600090E002C0880F991F2A95E2F7832B88BB7E
:10087000089535B381E090E002C0880F991F2A9552
:10088000E2F7832B85BB089532B381E090E002C08C
:10089000880F991F2A95E2F7832B82BB0895913028
:1008A00091F028F09230D9F0933029F108953BB3BC
:1008B00081E090E002C0880F991F2A95E2F78095A9
:1008C00083238BBB089538B381E090E002C0880F8A
:1008D000991F2A95E2F78095832388BB089535B345
:1008E00081E090E002C0880F991F2A95E2F7809579
:1008F000832385BB089532B381E090E002C0880F66
:10090000991F2A95E2F78095832382BB08959DEC79
:10091000899F912D1124969596959695392F330F91
:10092000232F220F220F230F821B282F913079F0C3
:1009300028F09230A9F09330E1F024C089B390E020
:1009400002C0959587952A95E2F78170089586B340
:1009500090E002C0959587952A95E2F781700895F9
:1009600083B390E002C0959587952A95E2F7817050
:10097000089580B390E002C0959587952A95E2F797
:100980008170089580E008955058BB27AA270E94DF
:10099000DC040C94F7050E94E90538F00E94F0058C
:1009A00020F039F49F3F19F426F40C94E6050EF478
:1009B000E095E7FB0C94E005E92F0E94080658F348
:1009C000BA17620773078407950720F079F4A6F534
:1009D0000C942A060EF4E0950B2EBA2FA02D0B01D5
:1009E000B90190010C01CA01A0011124FF27591B74
:1009F00099F0593F50F4503E68F11A16F040A22F7A
:100A0000232F342F4427585FF3CF469537952795EA
:100A1000A795F0405395C9F77EF41F16BA0B620BE9
:100A2000730B840BBAF09150A1F0FF0FBB1F661F30
:100A3000771F881FC2F70EC0BA0F621F731F841F73
:100A400048F4879577956795B795F7959E3F08F099
:100A5000B0CF9395880F08F09927EE0F979587955B
:100A600008950E9445050C94F7050E94F00558F082
:100A70000E94E90540F029F45F3F29F00C94E0055D
:100A800051110C942B060C94E6050E94080668F39D
:100A90009923B1F3552391F3951B550BBB27AA2737
:100AA00062177307840738F09F5F5F4F220F331F71
:100AB000441FAA1FA9F335D00E2E3AF0E0E832D039
:100AC00091505040E695001CCAF72BD0FE2F29D03C
:100AD000660F771F881FBB1F261737074807AB070E
:100AE000B0E809F0BB0B802DBF01FF2793585F4F83
:100AF0003AF09E3F510578F00C94E0050C942B06DB
:100B00005F3FE4F3983ED4F3869577956795B79564
:100B1000F7959F5FC9F7880F911D9695879597F96F
:100B20000895E1E0660F771F881FBB1F62177307E8
:100B30008407BA0720F0621B730B840BBA0BEE1FFD
:100B400088F7E0950895E89409C097FB3EF49095E6
:100B50008095709561957F4F8F4F9F4F9923A9F096
:100B6000F92F96E9BB279395F69587957795679525
:100B7000B795F111F8CFFAF4BB0F11F460FF1BC069
:100B80006F5F7F4F8F4F9F4F16C0882311F096E9FC
:100B900011C0772321F09EE8872F762F05C06623AA
:100BA00071F096E8862F70E060E02AF09A95660F63
:100BB000771F881FDAF7880F9695879597F908951C
:100BC00097F99F6780E870E060E008959FEF80EC00
:100BD000089500240A9416161706180609060895A3
:100BE00000240A9412161306140605060895092E09
:100BF0000394000C11F4882352F0BB0F40F4BF2B78
:100C000011F460FF04C06F5F7F4F8F4F9F4F0895B7
:100C100057FD9058440F551F59F05F3F71F04795AD
:100C2000880F97FB991F61F09F3F79F08795089592
:100C3000121613061406551FF2CF4695F1DF08C0B1
:100C4000161617061806991FF1CF869571056105CE
:100C500008940895E894BB2766277727CB0197F976
:100C600008950E94A30608F48FEF08950E94490694
:100C70000C94F7050E94E90538F00E94F00520F079
:100C8000952311F00C94E0050C94E60511240C94C6
:100C90002B060E94080670F3959FC1F3950F50E054
:100CA000551F629FF001729FBB27F00DB11D639F1E
:100CB000AA27F00DB11DAA1F649F6627B00DA11DC4
:100CC000661F829F2227B00DA11D621F739FB00D6A
:100CD000A11D621F839FA00D611D221F749F3327DA
:100CE000A00D611D231F849F600D211D822F762F73
:100CF0006A2F11249F5750409AF0F1F088234AF050
:100D0000EE0FFF1FBB1F661F771F881F91505040BB
:100D1000A9F79E3F510580F00C94E0050C942B063A
:100D20005F3FE4F3983ED4F3869577956795B79542
:100D3000F795E7959F5FC1F7FE2B880F911D96955C
:100D4000879597F90895990F0008550FAA0BE0E8C9
:100D5000FEEF16161706E807F907C0F0121613067D
:100D6000E407F50798F0621B730B840B950B39F4BD
:100D70000A2661F0232B242B252B21F408950A2623
:100D800009F4A140A6958FEF811D811D0895F89467
:020D9000FFCF93
:100D92000E0E0E0E0E000E00040E1F0E0E0E0E0E86
:100DA2000E0E0E0E0E1F0E0463617061636974797C
:100DB200203D200063617220696E73696465203D85
:100DC20020004E4F2043415220494E534944452072
:100DD20000544845204741524741450020416C6537
:100DE2007274004741524147452049532046554CB1
:020DF2004C00B3
:00000001FF
